:100000000C94BC020C94F4020C94F4020C94F402D0
:100010000C94F4020C94F4020C94F4020C94F40288
:100020000C94F4020C94F4020C948D260C94492642
:100030000C948A270C94F4020C94F4020C94F402AD
:100040000C94F4020C94F4020C94F4020C94F40258
:100050000C94F4020C9466270C94F4020C94F402B1
:100060000C94F4020C94F4020C94F4020C94F40238
:100070000C94F4020C94F4020C94F4020C94F40228
:100080000C94F4020C94F4020C94F4020C94F40218
:100090000C94F4020C94F4020C94F4020C94F40208
:1000A0000C94F4020C94F4020C94F4023700360021
:1000B00000001000360000000E2106000000504F26
:1000C00052514A4D4B4E2A4C2F30B6B7ABACBBBC4D
:1000D000A9AABDBE0D0E0B0F1A05080509050718C4
:1000E00011130408120C6F7228696E742069203D88
:1000F00020303B2069203C202E73697A653B202B01
:100100002B69297B7D00480D00111700151E001773
:100110002900001518172C008272756500170C0055
:10012000816E7400080C0B172C0082656972000B3D
:100130000A11080F2C008174680029001E001F009E
:1001400020002100220023002400797C2A002700BF
:100150007A7C2E002D00007C2B0014261A0008004B
:10016000150017001C0018000C00120013002F00CF
:1001700030003100767C3900044316410721092202
:100180000A000B000D220E210F4133343400000011
:1001900028434E00E1001D281B000600192405001D
:1001A00011001000360037003828E500000052002A
:1001B00021520100E200E30000002C420000000098
:1001C000E300E400000000000000500051004F0078
:1001D00001001D011901040106011B0101000100BC
:1001E0000100010001000100010001000100010007
:1001F00001003602370231003500240201002F00D1
:1002000030000100010001000100010001001E0298
:100210002D002E022E002002310233022602270278
:100220002202010000000100010001003102310042
:100230001E0201003502210201002F0230020100DE
:1002400001000000010001000100010001000000A8
:100250002700000000000100010000000000000075
:100260000100010001000100010001000100010086
:100270000100010001000100010001000100010076
:100280000100010001000100010001000100010066
:100290000100010001000100010001000100010056
:1002A00001000100010001000100010001005000F7
:1002B000510052004F000100010000000100010048
:1002C0000100010001000100010001000100010026
:1002D0000100010001000100000001000100010017
:1002E0000100010000000100000000000100010009
:1002F00000000000000001000100010001000100F9
:1003000001000100010001000100010001000100E5
:1003100001000100010001000100010001000100D5
:1003200001000100010001002300220021002E0233
:100330003800010001000100010001000100407EC1
:100340000100010001001E001F0020002D002502F9
:100350000000010001000100010001000100010096
:1003600001003700240025002600310001000000B4
:100370000100010001000100010000000100000077
:100380000000010001000000000000000100010069
:10039000010005010980A101850319012AB7001593
:1003A0000126B700950175108100C0050C0901A157
:1003B00001850419012AA002150126A002950175E4
:1003C000108100C005010906A1018506050719E095
:1003D00029E7150025019508750181020507190017
:1003E00029EF1500250195F0750181020508190115
:1003F0002905950575019102950175039101C005C7
:10040000010906A101050719E029E7150025019555
:1004100008750181029501750881010507190029F8
:10042000FF150026FF0095067508810005081901D3
:1004300029051500250195057501910295017503A2
:100440009101C009023B00020100A0FA090400006A
:1004500001030101000921110100012244000705E7
:1004600081030800010904010001030000000921C3
:1004700011010001226D0007058203200001120115
:10048000000200000008534F4B510100010200011F
:100490001A0351004B0036003500200048006F0061
:1004A0007400730077006100700000001603710093
:1004B000770065007200740079006B0065007900B8
:1004C00073000000040309040000000000000000A5
:1004D000000000000000000000000000000000001C
:1004E0000000000000000000000000007E0F00D4AB
:1004F000FFFFFFC7000000780000000000000000C0
:100500002A2B28000000000000000000000000006E
:1005100000000029000000002C1E34202122243479
:100520002627252E362D3738271E1F20212223244B
:1005300025263333362E37381F0405060708090AE7
:100540000B0C0D0E0F101112131415161718191A83
:100550001B1C1D2F3130232D350405060708090A01
:100560000B0C0D0E0F101112131415161718191A63
:100570001B1C1D2F3130354C11241FBECFEFDAE08C
:10058000DEBFCDBF04B603FE18C080919F039091DB
:10059000A003A091A103B091A2038730904BA74084
:1005A000B04B59F410929F031092A0031092A10334
:1005B0001092A203E0E0F8E3099511E0A0E0B1E0B9
:1005C000E6E7F6E502C005900D92AE3AB107D9F71D
:1005D00023E0AEEAB1E001C01D92AF39B207E1F706
:1005E0000E94B1270C94FA2A0C9400008D3128E265
:1005F000920709F441C0E8F4893022E29207B1F190
:1006000050F4873021E2920771F18E30914259F116
:1006100088EC90E00895893124E2920721F1843139
:1006200026E2920731F18D30924291F78EE690E00A
:1006300008958F3021E49207B1F050F4883328E216
:100640009207D1F08333944319F782E890E008953C
:100650008C3222E4920781F0843023E49207A9F3DC
:1006600086319144A9F684E690E008958FE590E004
:10067000089587E890E008958AEA90E00895892B2C
:1006800019F082E390E0089584E690E00895482F01
:1006900020919E039091550359E0291302C080E0F8
:1006A000089530E0529FF001539FF00D1124EA5A53
:1006B000FC4F8181681306C08081481303C0858187
:1006C0008111EECF2F5F3F4F2770E7CFE8EDF0E0CD
:1006D00080818E7F80831092E2001092DA00109267
:1006E000E100A0EEB0E08C9181608C9380818F77E7
:1006F000808319BCA7EDB0E08C918E7F8C938081B4
:100700008F7E808310923E0308952091E400309103
:10071000E50095E6A9012091EC00822F817020FF71
:1007200006C08091E80080FF06C080E00895209117
:10073000E80022FD1AC080914B03882389F08530A0
:1007400089F08091EB0085FD0FC02091E40030918D
:10075000E50042175307F9F29150E1F684E008955D
:1007600082E0089583E0089581E0089580914D032B
:1007700087FF13C08091E80082FF06C08091E800E7
:100780008B778093E80004C080914B038111F2CFF6
:10079000089580914B038823D9F38091E80080FF6E
:1007A000F8CF8091E8008E77ECCF982F9093E900F6
:1007B000242F762F50E0891731F07091EC002091B2
:1007C000ED005091F00021FD07C09F5F973071F759
:1007D0008093E90081E008953091EB003E7F3093F3
:1007E000EB003091ED003D7F3093ED003091EB0058
:1007F00031603093EB007093EC002093ED00509348
:10080000F0002091EE0027FDE0CF80E00895B0E0F9
:10081000A0E0EDE0F4E00C94452AC8EDD0E088813A
:100820008F7E8883E7EDF0E080818160808384E0C3
:1008300082BF81E080933E0388818E7F888302EEB1
:1008400010E0F80110821092DA0081EEC82ED12C4F
:10085000F601108288818F778883888180688883F9
:1008600088818F7D888319BC10924B0310924C03B2
:1008700010924A031092490390EEE92EF12CF701F1
:1008800080818B7F808388818160888342E060E003
:1008900080E00E94D503F60180818E7F8083F8017D
:1008A000808181608083808188608083F70180817E
:1008B0008E7F8083888180618883CDB7DEB7E8E052
:1008C0000C94612AFC018091530390915403861784
:1008D0009707A0F06115710529F49091E8009E77C3
:1008E0009093E80090E06115710551F4911108C0F2
:1008F0008091E80082FF34C080E00895BC01F2CF0F
:1009000080914B038823C1F18530C1F18091E800CB
:1009100083FD30C08091E80082FDEACF8091E8003D
:1009200080FFE1CF8091F3002091F200382F611514
:10093000710519F02830310558F091E02830310563
:1009400009F090E02091E8002E772093E800CBCFCB
:1009500081918093F100615071092F5F3F4FE7CF84
:1009600080914B03882341F0853041F08091E8006D
:1009700083FFBECF81E0089582E0089583E008956B
:1009800008958091400308959C014FB7F894809199
:100990003A0390913B03A0913C03B0913D034FBFBC
:1009A000821B930B08952FB7F89460913A037091CE
:1009B0003B0380913C0390913D032FBF08952FB7D7
:1009C000F89480913A0390913B03A0913C03B0913D
:1009D0003D032FBF0895909132019923D1F090915A
:1009E000370397FF16C0E82FE695E695E695EE31BA
:1009F000E0F4F0E0E854FE4F282F277081E090E00B
:100A000001C0880F2A95EAF7809592818923828315
:100A10000895E2EBF1E09191891303C0DF01119792
:100A20001C9291E0E83BF907B1F7089590913201EB
:100A30009923C1F09091370397FF14C0E82FE695F2
:100A4000E695E695EE31F8F4F0E0E854FE4F877055
:100A500021E030E001C0220F8A95EAF78281822BE3
:100A600082830895A2EBB1E0EFEF90E02D91821721
:100A700051F0EF3F19F4211101C0E92F9F5F96302B
:100A8000A9F7EF3F09F408950E2E000CFF0BE05577
:100A9000FE4FE6CFA3E0B0E0E0E5F5E00C944B2A92
:100AA000209135033091360328173907A1F0909330
:100AB000360380933503E0913303F091340330978C
:100AC00051F024E029839B838A830084F185E02D03
:100AD000CE01019609952396E2E00C94672AA3E0E3
:100AE000B0E0E5E7F5E00C944B2A2091310330911A
:100AF000320328173907A1F0909332038093310312
:100B0000E0913303F0913403309751F023E02983CF
:100B10009B838A830084F185E02DCE01019609959F
:100B20002396E2E00C94672AE0913303F0913403BA
:100B3000309729F00190F081E02D0995089580E02B
:100B40000895DC0130E020E0FD01E20FF31FE491A5
:100B5000E41307C0E1E0E227EA0FFB2FF11D8491C7
:100B600008952F5F3F4F261778F380E00895909106
:100B70002D0389029001112437FF03C080932D03B8
:100B800008952F3731051CF4980F90932D03089585
:100B9000CF93DF93EC0140912203509123036091A6
:100BA0002403709125032FB7F89480913A03909114
:100BB0003B03A0913C03B0913D032FBF841B950BD9
:100BC000A60BB70B843F9140A105B10518F58091A4
:100BD000220390912303A0912403B09125038093D5
:100BE0001E0390931F03A0932003B093210384EF6F
:100BF00091E0A0E0B0E080931A0390931B03A093D0
:100C00001C03B0931D03D0932A03C0932903DF91E3
:100C1000CF9108950E94D30460931E0370931F0325
:100C2000809320039093210382E390E0A0E0B0E062
:100C3000E2CFFC018481862351F492819923B9F09B
:100C40006923808583FF05C081E061110FC080E0CA
:100C50000895892F8F7092959F70982B862F8F7093
:100C600062956F70682B81E09613F1CF089581E053
:100C7000FDCFDC016091160380911703962F891335
:100C800001C00895292F30E0F901EE0FFF1FE25F48
:100C9000FC4F408151814A175B07A1F487E08A9F8E
:100CA000A0018B9F500D1124445E5E4F81E0FA013C
:100CB00084839613E6CF2F5F3F4F23703327209313
:100CC000160308952F5F3F4F922F9370D8CF109245
:100CD000A2021092A102ECE1F1E081E391E0258112
:100CE000211102C01482168237968E179F07B9F71A
:100CF000089580E00895F894E82FE295EF70F0E011
:100D000031A1282F2F7081E090E001C0880F2A9533
:100D1000EAF7982F9095932391A392A1892B82A310
:100D2000789408959091370392FF10C041E0282FE6
:100D30002471243009F040E031E0282F2871283058
:100D400009F030E0431711F02CE0822793FF10C028
:100D500041E0282F2471243109F040E031E0282FB0
:100D60002871283109F030E0431711F02CE0822778
:100D70003091380330FF10C051E0282F217121300D
:100D800009F050E041E0282F2871283009F040E0B8
:100D9000541711F029E0822731FF10C041E0282FBD
:100DA0002171213109F040E031E0282F28712831EC
:100DB00009F030E0431711F029E0822794FD877E87
:100DC000089582389105B9F1B0F48133910509F4A1
:100DD0007DC048F48932910509F46DC08A329105CD
:100DE00009F47BC008958533910509F45FC0893308
:100DF000910509F10895833E9105D9F138F4803EBB
:100E0000910529F1823E910579F10895863E91057B
:100E1000D9F1873E910509F43EC0843E910541F524
:100E20002091380321FF24C08091370384FD19C02D
:100E300087EE90E0089520913703237009F05AC09F
:100E40002091380323FF14C089E290E00895209197
:100E5000370320FD38C03091380330FF09C024FF2C
:100E600043C090E080E008952091370322FDF7CF42
:100E700008952091370322FD3AC03091380330FDA8
:100E800039C024FFF5CFEDCF2091370323FFF0CFFA
:100E900024FDE7CFCDCF2091370323FD2EC0309125
:100EA000380331FFEECF84EE90E0089520913703B0
:100EB00025FFDECFC9CF2091370325FD21C020912A
:100EC000380323FFD5CF89E390E0D2CF20913703B9
:100ED00026FFCECF8AE290E008952091370326FFC7
:100EE000C7CF81E390E0089583EE90E0089582EE0D
:100EF00090E0089580EE90E0089586EE90E00895E9
:100F000085E390E00895972F7530B8F46F30A8F41A
:100F10008430B0F470E02FE0929F600D711D1124B9
:100F2000FB019BE4899FE00DF11D1124EE0FFF1FD3
:100F3000E65CFE4F85919491089580E090E00895DD
:100F400081E0FCCF1F93CF93DF930E94E106EC0179
:100F5000C11580E5D807F0F5C11580E4D80708F081
:100F60009CC0C03ED10520F5CD3CD10508F082C023
:100F7000C83AD10578F4C53AD10508F073C0C1303C
:100F8000D10519F1209709F1C430D105F0F4D0E072
:100F9000C0E01BC0C33CD105D0F7C85AD0E0CC0F8D
:100FA000DD1FCD59DE4F0990D881C02DD4640DC00E
:100FB000C11580E2D80708F0D1C0C11581E0D8077B
:100FC00008F05AC0C83ED10510F7CE01DF91CF918D
:100FD0001F910895C03682E5D80718F5C03482E520
:100FE000D80708F06BC0C03282E5D80708F05FC0B0
:100FF000C11582E5D80708F497C02C2F26952695B1
:1010000080E2289F900111248C2F8370C1E0D0E0F2
:1010100002C0CC0FDD1F8A95E2F7C22BD32BDD680F
:10102000D4CFC03A82E5D80760F4C03882E5D8074B
:1010300008F459C0CF71D0E0DC2FCC27C46FD06A40
:10104000C4CFC03C82E5D80708F462C0C03E82E548
:10105000D80708F09CCFDC2FCC27CC27DF71C06FDE
:10106000D06AB3CFC55AD0E0C05ADE4FC881D0E0B5
:10107000D064ABCFD065A9CF8D2F0E949206182FD8
:10108000CE0199270E94E106C12FD0E0DC2FCC27AA
:10109000CC27DF71C82BD92B98CFCE0199270E947E
:1010A000E106CC27DF70C82BD92BD06A8ECFCF7149
:1010B000D0E0DC2FCC27C16FD06A87CF2C2F2695AC
:1010C0002695277080E2289F900111248C2F837031
:1010D000C1E0D0E002C0CC0FDD1F8A95E2F7C22B41
:1010E000D32BDC6872CF2C2F26952695277080E2B3
:1010F000289F900111248C2F8370C1E0D0E002C0A2
:10110000CC0FDD1F8A95E2F7C22BD32BDA685DCFB7
:101110008C2F8F710E949206C82FD0E0DC2FCC2735
:10112000CC27DF71D06251CF8C2F8F710E94920635
:1011300055E0D695C7955A95E1F7CF70D0E0DC2FF2
:10114000CC27282F30E084FF05C044E0220F331F56
:101150004A95E1F7C22BD32BD06937CF8D2F8F71F2
:101160000E949206182FCE0199270E94E106C12FF6
:10117000D0E0DC2FCC27CC27DF71C82BD92BD2CFE6
:10118000809169028111109269020895909169021B
:10119000292F282321F080958923809369020895BF
:1011A0008095909168029823909368020895CF9358
:1011B00080916802C091A302C82B809169028823A4
:1011C00091F0C82B809132018823B1F080913703D0
:1011D00087FF12C08EE12AEB31E090E0815080F46D
:1011E00091110E94C0088091260380958C239091D4
:1011F0002703892BCF91089586E022EB31E0EDCFD4
:10120000F90141919F01442349F39F5FE7CF80910A
:101210009E0390915503981301C008958F5F8770C6
:10122000FACFCF92DF92FF920F931F93CF93DF936A
:101230006C010091840280918302082BC7E0D0E00A
:1012400010E0FC2EC8010C2E02C0959587950A94DB
:10125000E2F780FD0CC02197A0F7F12C8F2DDF91D4
:10126000CF911F910F91FF90DF90CF900895B6011D
:101270008C2F0E9483070E94A207019761F3EECF93
:10128000CF93DF93EC010E941109BE010E948307F6
:101290000E94A207DF91CF910895292F953078F50C
:1012A0008F3068F590E03FE0239F800D911D112461
:1012B000682F677023E0969587952A95E1F7FC01E2
:1012C000EE0FFF1FE80FF91FE85EFD4F50E040E012
:1012D00080E0219130E0062E02C0369527950A94D1
:1012E000E2F721703327042E01C0220F0A94EAF797
:1012F000822B4F5F5F4F4330510559F7089580E0CF
:101300000895292F953098F58F3088F590E03FE0CB
:10131000239F800D911D1124282F277041E001C0CB
:10132000440F2A95EAF723E0969587952A95E1F7E9
:10133000FC01EE0FFF1FE80FF91FE85EFD4F30E0E4
:1013400020E070E05191DF011197CB01022E02C025
:10135000969587950A94E2F7817081958527842375
:1013600085278C932F5F3F4F2330310559F7089520
:1013700080938402089521E030E001C0220F8A9515
:10138000EAF720958091840282230E94B80908958B
:1013900090913F028095892380933F02282F2770E8
:1013A00069F4891759F09091380392FF07C0869528
:1013B000869586950E94BB0910923F02089521E010
:1013C00030E001C0220F8A95EAF780918402822BD7
:1013D0000E94B809089580938302089592959F70A2
:1013E000963091F058F4925F9F70923058F4803F9D
:1013F00019F030F4883E30F481E008959A5FF4CF1C
:10140000843FD1F380E00895883EB0F3813FD1F767
:10141000F3CFFC018481882371F087819085009748
:1014200029F00E94A2070E94EE090895808191810F
:101430000E944009F8CF80E00895982F92959F7000
:1014400011F0892F94E0282F2695269511F09E5FA4
:10145000822F869509F09F5F892F0895A6E0B0E05E
:10146000E4E3FAE00C944A2A49835A8349815A8179
:101470009923A1F0222391F0CA010E941109182F8B
:10148000682F89819A810E94810969817A81812FDF
:101490000E9483072696E3E00C94662ACA010E9404
:1014A0004D09182FF2CFFC01262F878190850097D8
:1014B00041F44081518162817381848195810E94D0
:1014C0002E0A08959C013A9521153F4150F5FC01E3
:1014D000EE27F170BC0166277270AC01442754708E
:1014E0009C012227387094FF0EC080E1EF2B09F495
:1014F00080E0672B09F08062452B09F08064232B84
:1015000089F08068089581E0EF2B09F480E0672B73
:1015100009F08260452B09F08460232B19F0886064
:10152000089580E008950F931F93CF9301E010E09A
:10153000082E01C0000F0A94EAF7C09178029C2F90
:101540009023E1F490913F02969596959695891394
:1015500002C010923F020E94DF090E94D3046093F0
:101560007402709375028093760290937702C0277D
:10157000C0937802CF911F910F9108950E94BB09EB
:10158000F6CF209168022D79F1F49C01305221159B
:10159000304308F499279C01245031092A31310540
:1015A00030F08433910519F058F48C9761F4FB0105
:1015B0008081918181609093700280936F02089581
:1015C000C6970297A0F31092700210926F020895CE
:1015D0000F931F93CF93DF938B01EA0190914B03FD
:1015E000943061F58093E9008FEF9091E80081508D
:1015F00095FD06C095ED9A95F1F700008111F5CFA4
:101600008091E80085FF1AC00E948503811111C0F6
:101610008091E80085FD06C08091E8008E77809378
:10162000E800F2CFF80181918F018093F1002197BA
:1016300079F78091E8008E778093E800DF91CF9171
:101640001F910F91089543E050E0BC0182E00E9499
:10165000E80A089540E250E0BC0182E00E94E80AF6
:101660000895CF93DF93EC0148E050E0BC0181E0A6
:101670000E94E80A88E0FE01A1E4B3E001900D9227
:101680008A95E1F7DF91CF91089581E08093E000A2
:1016900080E28093D8001092C9008FE19EE4019708
:1016A000F1F700C0000087E090EBDC0180939F031E
:1016B0009093A003A093A103B093A20388E19CE0C0
:1016C0000FB6F894A895809360000FBE90936000C9
:1016D000FFCF9091380392FB222720F9281779F049
:1016E00080FB92F99093380360913703709138032F
:1016F00084E090E00E94E42A82E00E94C8090895F4
:1017000080913201882359F18091370387FF27C0E8
:101710000E94D7088093B90140E250E060E472E093
:1017200088EB91E00E94792A892BC1F080E2E8EBF6
:10173000F1E0A0E4B2E001900D928A95E1F7E0912A
:101740003303F0913403309749F086E08093B80179
:101750000480F581E02D88EB91E0099508950E94C1
:10176000D7088093B00148E050E060E672E080EB7B
:1017700091E00E94792A892B89F388E0E0EBF1E07F
:10178000A0E6B2E001900D928A95E1F7E091330373
:10179000F0913403309711F30280F381E02D80EB58
:1017A00091E0DBCF10926802809132018823C1F072
:1017B0008091370387FF14C0EAEBF1E08EE1DF018F
:1017C0001D928A95E9F790E080E00E946F0590E015
:1017D00080E00E944A051092A3020E94800B0895A7
:1017E000E2EBF1E086E0EBCFAAE2B0E0EAEFFBE06B
:1017F0000C944A2A8DE493E02091F100FC0121939E
:10180000CF01F3E085359F07B9F780914E03833010
:1018100009F470C0B8F4813009F447C0823009F48B
:10182000B1C08091E80083FF7EC280914D0390910A
:101830004E039A3008F077C2E92FF0E0E450F54DFE
:101840000C94352A8A3009F48CC08B3009F46FC0AF
:10185000893039F780914D03813219F78091510316
:10186000909152030297E8F68091E800877F809379
:10187000E8008091E80082FF38C09091F3008091E9
:10188000F200029731F48091F100813011F086303E
:1018900021F48091F100809340038091E8008B77E0
:1018A0008093E8000E94B603BCCF80914D03813A3B
:1018B00009F0B7CF8091E800877F8093E80080919E
:1018C000510390915203892B61F468E081E493E025
:1018D00070E00E9462048091E8008B778093E800BA
:1018E000A0CF60E090E080E0F3CF80914B038111C6
:1018F000C0CF97CF80914D03813A09F092CF80916C
:10190000510390915203892B09F08BCF8091E8000D
:10191000877F8093E8008091E80080FFFCCF809172
:1019200032018093F1008091E8008E77B9CF8091E9
:101930004D03813209F075CF80915103909152038C
:10194000892B09F06ECF8091E800877F8093E800B3
:101950000E94B60380914F03809332010E94D20B04
:1019600060CF80914D03813209F05BCF8091E80018
:10197000877F8093E8000E94B60380915003809394
:101980003F034FCF80914D03813A09F04ACF8091B8
:10199000E800877F8093E8008091E80080FFFCCF1B
:1019A00080913F03BECF803899F0823809F0BBC1E7
:1019B000809151038F70873008F0B5C18093E900A2
:1019C0008091EB0085FB882780F91092E90006C022
:1019D0008091490390914A03911182609091E800AF
:1019E000977F9093E8008093F1001092F10080912E
:1019F000E8008E7794C1882309F482C1823009F00F
:101A000092C180914F03811185C1809151038F70E4
:101A10002FEF280F263008F086C18093E90020912F
:101A2000EB0020FF77C1933031F48091EB008062AE
:101A30008093EB006FC19091EB0090619093EB006D
:101A400021E030E001C0220F8A95EAF72093EA00F6
:101A50001092EA008091EB008860EACF811163C1A7
:101A600010914F031F778091E3008078812B809342
:101A7000E3008091E800877F8093E8000E94B6032E
:101A80008091E80080FFFCCF8091E3008068809324
:101A9000E30082E0111183E080934B0344C180583E
:101AA000823008F040C180914F03909150038C3DEB
:101AB00023E09207A1F583E08A838AE289834FB706
:101AC000F894DE01139620E03EE051E2E32FF0E0CF
:101AD00050935700E49120FF03C0E295EF703F5F01
:101AE000EF708E2F90E0EA30C0F0C7968D939D93F3
:101AF0002F5F243159F74FBF8091E800877F809393
:101B0000E8006AE270E0CE0101960E9462048091D2
:101B1000E8008B778093E80006C1C096E7CF40913C
:101B2000510350915203292F33272330310509F4F3
:101B300044C078F52130310509F46FC08BE390E0A3
:101B4000E3E4F4E02230310509F0EDC02091E80033
:101B5000277F2093E800209153033091540382178C
:101B6000930708F49C0140E02115310509F064C099
:101B7000411162C08091E80082FDC9CF80914B0382
:101B8000882329F2853019F28091E80083FFF2CF93
:101B9000BECF21323105A9F12232310509F0C3C08F
:101BA0004115510509F443C04130510509F0BBC04E
:101BB0008DE690E0E2E9F3E0C9CF99278130910505
:101BC000C1F0009759F0029709F0ADC0E0E9F4E0E8
:101BD000E4918E2F90E0E0E9F4E007C0E4ECF4E05B
:101BE000E4918E2F90E0E4ECF4E0009709F49BC0C0
:101BF000ADCFECEAF4E0E4918E2F90E0ECEAF4E073
:101C0000F4CF4115510571F04130510509F08BC0F9
:101C100089E090E0EEE6F4E099CF82E190E0EEE733
:101C2000F4E094CF89E090E0E5E5F4E08FCF84E440
:101C300090E0EFEFF3E08ACF80914B03882309F423
:101C400066CF853009F463CF8091E80083FD5FCFD4
:101C50008091E80082FD8ECF8091E80080FF84CFE4
:101C60009091F3008091F2002115310519F0883030
:101C7000910550F041E0089709F040E08091E800BC
:101C80008E778093E80070CF44914093F1003196B5
:101C9000215031090196E8CF803809F044C0809185
:101CA000E800877F8093E80080914C038093F100E7
:101CB0009ECE811138C010914F031230A0F5809153
:101CC000E800877F8093E80010934C030E94B603DE
:101CD000112311F084E005C08091E30087FDFACF65
:101CE00081E080934B0342E061EC81E00E94D503E8
:101CF00042E261EC82E00E94D50380914B0313C065
:101D000080914F03813079F481E0933009F080E0D5
:101D100080934A031092E9008091E800877F8093C6
:101D2000E8000E94B6038091E80083FF0AC080911A
:101D3000E800877F8093E8008091EB0080628093C9
:101D4000EB00AA96E3E00C94662A0E94D20B2FEFD8
:101D500084E39CE0215080409040E1F700C0000007
:101D600088E19CE00FB6F894A895809360000FBEC0
:101D700090936000FFCF882341F080959091A3025B
:101D800089238093A3020E94800B08958091A00272
:101D9000882329F082E20E94BB0E1092A0020895CF
:101DA000882339F09091A302982B9093A3020E946C
:101DB000800B0895882321F00E94D0080E94800B98
:101DC00008958091F7010E94DA0E1092F7010895AC
:101DD000882339F090916802982B909368020E94B2
:101DE000800B0895882339F19CEF980F913A28F4DD
:101DF0000E94EB040E94800B089590E2980F9830A7
:101E000050F4877091E001C0990F8A95EAF7892F05
:101E10000E94D008EFCF9BE5980F933028F490E014
:101E200080E00E946F050895885A8B3120F490E07D
:101E300080E00E944A050895FF920F931F93CF936D
:101E4000DF93F82E00912B0310912C03011511053F
:101E500009F449C010922A03109229031092260314
:101E600010922703D8011696CD91DC919E013A95E8
:101E700021153F4108F4D07ED1E0C11101C0D0E06E
:101E8000D8011996ED91FC911A97309731F01B9675
:101E90006D917C9180E00995D823DD2339F08CEF9A
:101EA0008C0F813A30F58C2F0E94EB04FF2099F0C3
:101EB000E0912B03F0912C03808584FD0CC0809170
:101EC0002803882341F0808191819C0121503109B0
:101ED0002F333E47A0F00E94800B10922C031092EB
:101EE0002B0310922803C801CDB7DEB7E5E00C94B0
:101EF000642A0E94800B8C2F0E94F20ED7CF0E9482
:101F0000C805E9CFCF93C82F8823B9F18CEF8C0F88
:101F1000813AA8F580913201882301F1809137033D
:101F200087FF1CC0EC2FE695E695E695F0E0E854B7
:101F3000FE4F828190E04C2F477021E030E002C0DC
:101F4000220F331F4A95E2F782239323892B81F0D6
:101F50008C2F0E94EB040E94800B0AC0E2EBF1E0A0
:101F600088EB91E02191C21799F38E179F07D1F763
:101F70008C2F0E9416050E94800BCF91089580E25D
:101F80008C0F883068F4C77021E030E001C0220F68
:101F9000CA95EAF780916802822B80936802EBCFA2
:101FA000EBE5EC0FE33040F4F0E0E05AFE4F8081C7
:101FB00090E00E946F05E1CFC85ACB31F0F6EC2FCC
:101FC000F0E0EE0FFF1FED59FE4F808191810E94DE
:101FD0004A05D3CF1F93CF93DF93182FEB010E94B5
:101FE000820F209739F4812F0E94F20EDF91CF915A
:101FF0001F9108958FE99FE00197F1F700C000005D
:102000002197EFCF70E060E0893311F460E570E074
:102010000E94EA0F0895B0E0A0E0E1E1F0E10C9445
:10202000432AEC018AE0A82EFE012491222309F420
:102030009AC0213009F03FC031968491813031F44B
:102040002296FE0184910E94021007C0823039F46A
:102050002296FE0184910E94820F2196E5CF833063
:1020600031F42296FE0184910E94F20EF6CF843064
:1020700009F077C02296FE01249190E080E0FE01F5
:1020800031962053330B2A30310550F0009729F355
:10209000EFE9FFE03197F1F700C000000197F6CFBC
:1020A000A89EA001A99E500D1124C901840F951F5F
:1020B0002491EF01E4CFE22FF0E0E850FB4FB49021
:1020C000822F86958695869590E0FC01E851FB4F1E
:1020D000E4902770F12C022E02C0F594E7940A9444
:1020E000E2F7F1E0EF22FF24FC01E852FB4FC4903D
:1020F000D12C022E02C0D594C7940A94E2F731E0A5
:10210000C322DD24FC01E853FB4F049110E002C020
:10211000159507952A95E2F701701127E114F1044E
:1021200019F081EE0E94820FC114D10419F086EEDD
:102130000E94820F70E060E08B2D0E94EA0FC114B4
:10214000D10419F086EE0E94F20EE114F10419F0A8
:1021500081EE0E94F20E0115110509F47ECF8CE28A
:1021600072CFEF017ACFCDB7DEB7EAE00C945F2AE9
:10217000B0E0A0E0EEEBF0E10C94452A6B01C42F37
:10218000D22FFC0185818823A9F0409330030E945F
:10219000DF0490932F0380932E03C77081E001C06A
:1021A000880FCA95EAF70E94E80ECDB7DEB7E8E0DF
:1021B0000C94612A10913003141337C080912E03C0
:1021C00090912F030E94C4047C01C6010E94F60274
:1021D000E816F90650F5C0E2CD0F1D17C1F080E2F8
:1021E000810F883048F4177081E0012E01C0880FFC
:1021F0000A94EAF70E94DA0EC83048F481E09D2F75
:10220000977001C0880F9A95EAF70E94E80E802F18
:102210000E940210C83048F6D77081E001C0880FD4
:10222000DA95EAF70E94DA0EC0CFC77081E001C0EC
:10223000880FCA95EAF7F6CF843011F0883019F488
:102240008DE60E9402100895CF93DF93EC010E9467
:10225000620A9E01205E31092830310510F0209776
:1022600041F40E94E80E8C2F0E94820FDF91CF91E3
:1022700008950E94D00EF7CFACE1B0E0E2E4F1E1C6
:102280000C943B2A7C01DC0114968C91882309F480
:102290005CC061E0C7010E94530A8C019091F60175
:1022A00091110C94B41EF70185818823B9F00115B2
:1022B000F0E51F0708F085C0011520E2120708F0BD
:1022C00098C0011537E0130749F008F042C09801A3
:1022D000205E31092830310508F040C00937FCE79D
:1022E0001F0709F08BC02091EA013091EB01232BED
:1022F000E9F0811151C086E0F701A9EDB1E001904C
:102300000D928A95E1F78091D8018093F60189EDCD
:1023100091E00E943C111092F601D70115968C9124
:10232000811104C08091E2010E94BB0E80913F02A6
:10233000877059F0F7018581882339F0809138033F
:1023400082FF03C082E00E94C8096C96E2E10C940F
:10235000572A01155FE0150709F4C0CF40916802C4
:102360008091A3023091690229E0F701A3EEB1E068
:1023700001900D922A95E1F71093EB010093EA0189
:1023800010922D03842B832B8093E2010937FCE705
:102390001F0711F00C94AE1E81E00E94B7058091DA
:1023A000E2010E94D00E89E0E3EEF1E0A9EDB1E098
:1023B00001900D928A95E1F780912D038093D801C9
:1023C0009ACF003EA2E51A0760F40036B2E51B077B
:1023D00008F084CF980132552034310508F0BECF83
:1023E0007DCF980129573C472230310508F0B6CF00
:1023F00075CFF7012681207F09F0B0CF0A37BCE7FF
:102400001B0711F00C94B41E882381F18091E20126
:10241000282F207F09F090E14091EA015091EB01D3
:10242000182F12951F70182B1F70192B4115E0E4FF
:102430005E0708F040C04115F0E25F0708F03FC0BA
:10244000411521E0520708F053C04F3F5105C1F13B
:10245000B8F190E080E027E0EDEEF1E0DF011D92C1
:102460002A95E9F79093F5018093F4018091F401A6
:102470009091F501892B09F459CFF70185818823C3
:1024800039F08FEF0E94B70580912D038093EC0106
:1024900086E0F701ADEEB1E001900D928A95E1F78B
:1024A0008091EC018093F6018DEE91E00E943C1149
:1024B0001092F6013BCF411530E5530730F6552712
:1024C000042F812F8D70B1F06AE08CED90E00E94B6
:1024D000A10590E0009751F4402F66E18EEB90E06B
:1024E0000E94A10590E0009709F4B3CF912BB3CFE0
:1024F000152BE5CF68E084ED90E0E9CF80910102F3
:10250000909102020817190709F03FC0D7011596EC
:102510003C9131110C94FC1D233021F41092FD01EB
:1025200061E016C080917102882311F10E94E10ED2
:102530008091FE018E7081618093FE0162E088EFE0
:1025400091E00E9423250E94800B1092FD0162E021
:1025500088EF91E00E9423251092710281E0809320
:102560001101109202021092010210920302DECEBB
:1025700080910302811103C00E942E25CFCF411507
:10258000504250F70E94E10EE7CF21110C94001E3B
:10259000F7012581222311F40C94001E8D30F2E204
:1025A0009F0709F463C008F054C08E3031E29307EE
:1025B00009F45CC0893042E2940709F457C08730BF
:1025C00051E2950709F452C024E630E060916F02B1
:1025D000709170026115710579F02115310561F076
:1025E000D70112964D915C91461B570B421B530B22
:1025F00021E04F3F5F4708F420E0E22FE170BE2E5C
:1026000020FDA3C0DD20E9F0CC2029F0D7011696EB
:102610002C91207FB1F08D31B8E29B0709F449C1BC
:1026200008F03FC08930F2E29F0709F4EAC008F5DC
:10263000873031E2930709F473C08E30914209F478
:1026400097C10E942E2560911101C7010E94232588
:102650006DCE8C32A2E49A0749F08430B3E49B0734
:1026600029F08333E4E39E0709F0AECF30E020E0A9
:10267000ADCF8D3052E2950709F4A2C18931944261
:1026800001F70A31110509F460C008F05FC1083094
:10269000110509F45AC008F050C104301105D9F5EC
:1026A00054C08F30B1E49B0709F4ABC1D0F4883338
:1026B000F8E29F0709F4C1C18333944311F608314E
:1026C000110509F442C008F4A1C10D3092E21907C6
:1026D000E1F108F0CEC10E30B1E21B0709F0B1CF35
:1026E00034C08C3232E4930709F4C9C0843043E427
:1026F000940709F407C18631914409F0A2CF0C3147
:10270000110508F0A5C009311105F8F408301105CC
:10271000E1F008F012C10630110509F092CF15C0A2
:102720000731110591F008F05BC00830110569F020
:10273000C80105970930110508F44FC10A30110589
:1027400021F00531110509F07CCF0E94E10E809146
:10275000FE018E7081618093FE0162E088EF91E05E
:102760000E9423250E94800B1092FD0162E088EFF9
:1027700091E00E942325B7016E5F7F4FC8010E9440
:10278000C10ABB2009F45FCFDD2009F45CCFCC2067
:1027900009F459CFD70116968C91807F09F053CF59
:1027A0006AEF71E080910102909102020E94C10AD9
:1027B000109302020093010289E0F701A8EFB1E053
:1027C00001900D928A95E1F7F701828193818A51F8
:1027D0009F4F909373028093720210921101C5CEA5
:1027E000063181E4180709F4B0CF08F0BBC00A3104
:1027F000110509F4AACF0930A2E21A0709F021CF86
:10280000A4CF0A31110509F4A0CF58F408301105FE
:1028100009F49BCF08F091C00430110509F011CFE5
:1028200094CF0631F1E41F0709F48FCF30F407305D
:1028300031E2130709F005CF88CF0C3242E41407C8
:1028400009F483CF043053E4150709F0FACE7DCFA5
:10285000093082E2180709F478CF30F40730A1E29A
:102860001A0709F0EECE71CF0431B6E21B0709F466
:102870006CCF0430E3E41E0709F0E3CE66CF0E30E0
:10288000F1E21F0709F4DDCE48F40B30110509F41D
:10289000D8CE0831110509F058CFD3CE0D3032E231
:1028A000130709F4CECE0F3041E4140709F04DCFE1
:1028B000C8CE0A31110509F448CF68F40531110575
:1028C00009F443CF0731110509F43FCF0830110552
:1028D00009F0B7CE3ACF093052E2150709F435CFE7
:1028E00030F4073091E2190709F0ABCE2ECF063154
:1028F000A1E41A0709F429CF0C32B2E41B0709F04E
:10290000A0CE23CF0B31110508F4FDCE0930E2E251
:102910001E0709F41ACF30F4073021E2120709F03C
:1029200090CE13CF063131E4130709F40ECF0C32E9
:1029300042E4140709F085CE08CF0531110509F4EA
:1029400004CF0731110509F07CCEFFCE063151E4EA
:10295000150709F4FACE30F4073091E2190709F0AF
:102960004ACFF3CE0C32B2E41B0709F082CFEDCE92
:102970000831110509F4E9CE60F40C30110509F4B1
:10298000E4CE08F4A3CFC8014097049708F059CECD
:10299000DCCE0333F4E31F0709F4D7CE30F40D3057
:1029A00032E2130709F04DCED0CE0F3041E41407C8
:1029B00009F4CBCE0C3252E4150709F042CEC5CE55
:1029C0000831110509F4C1CE60F40C30110509F489
:1029D000BCCE08F436CEC8014297029708F031CE3B
:1029E000B4CE033384E3180709F4AFCE0F3091E47B
:1029F000190709F4AACE0E30A1E21A0709F021CE78
:102A0000A4CE0831110509F4A0CE38F40C3011051C
:102A100009F49BCE08F0B7CF14CE0D30B2E21B07FD
:102A200009F493CE0333E4E31E0709F48ECE0E308F
:102A3000F1E21F0709F005CE88CE0831110509F42F
:102A400084CE20F30D3022E2120709F47ECE30F45A
:102A50000E3041E2140709F0F4CD77CE0F3051E487
:102A6000150709F472CE0C3282E4180709F0E9CD9B
:102A70006CCE0F30E1E41E0709F467CE0C32F2E4AD
:102A80001F0709F0DECD61CE0E94BB0E0C941E1E06
:102A90000E94D3046093740270937502809376024F
:102AA000909377029091780280918402282F30E0F1
:102AB0002095309550E029233523232B19F09823B6
:102AC00090937802D70115964C910034BEE71B070E
:102AD00041F4442309F42ACC0E941D0A0E94930A5F
:102AE00025CC0115E2E51E0708F03EC00115F0E512
:102AF0001F0708F05DC0011520E4120708F076C03A
:102B0000442309F48CC00134BEE71B0711F00C9478
:102B1000ED1D86EE90E00E940B10053E110509F4B4
:102B2000BDC08091A0028111E0C0D70115965C90D4
:102B3000552009F477C10E35BCE71B0709F46EC1B7
:102B40000F35ECE71E0751F00D35FCE71F0709F0C4
:102B500069C180910801882309F460C110920801BD
:102B600080E00E941C0FE2CB003232E5130740F2F6
:102B7000003452E5150730F0C801805C924580971B
:102B800008F0BECF802F8F712091780230E061E095
:102B900070E0082E02C0660F771F0A94E2F7262322
:102BA0003723232B09F4ACCF442309F4BFCB96CFB2
:102BB000C801E5E096958795EA95E1F78F70209139
:102BC000780230E061E070E0082E02C0660F771FE7
:102BD0000A94E2F726233723232B09F491CF4111DE
:102BE0007DCF109268020E94800BA0CBD701169671
:102BF0008C91807F09F084CF411185CF212F2F70D8
:102C000081E090E002C0880F991F2A95E2F7209199
:102C1000780230E082239323892B09F087CB033796
:102C2000ECE71E0709F482CB023AF2E51F0751F0E8
:102C300088F5C80190528115904298F1013E110526
:102C400009F06BCF21EE30E02770332781E090E070
:102C500001C0880F2A95EAF7209106023091A00260
:102C6000332389F1F7013581332351F1822B80938E
:102C700006025CCB109268020E94C0080E94DF042A
:102C800088579C4E90939E0280939D0281E0809392
:102C9000A0024CCB023B42E5140781F625EE30E062
:102CA000D3CFD70116968C91807F41F6812F99273B
:102CB0008F7199278230910529F2429779F3BECF1F
:102CC00080958223D4CF322F382309F42ECF982F2A
:102CD00090952923209306020E94D008D7011596CB
:102CE0008C91882309F422CB20CFC0906802D09029
:102CF00069020E94DF0488579C4E90939E02809345
:102D00009D02F7018581882309F40FCF8D2D8C2931
:102D10008D7909F05FC00034F2E51F0778F50115E1
:102D200022E5120708F001CF011530E4130758F42B
:102D3000011540E2140708F03FC0063E110509F4F2
:102D4000F4CEC8010BC0011550E51507D0F7F70107
:102D50008681807F09F4E9CEC80199271092A302E9
:102D60008832910508F040C08E31910508F042C0CC
:102D7000049780F182E08093A3023CC0003E82E58C
:102D80001807A0F4003C92E5190708F0CECE0036F3
:102D9000A2E51A07B0F2003AB2E51B0708F4C5CE67
:102DA000043BE2E51E0709F4C0CECBCFC80187572C
:102DB0009C47029730F6B9CED70116968C91807F4A
:102DC00059F6812F8F71843109F4AFCE863111F419
:102DD0001092A3020E94C60E809168029091060292
:102DE000892B80936802A1CE8D32910519F278F477
:102DF0008A9781F780910602882331F08091A3029F
:102E000092E089278093A3020E94800B8ECE8C349F
:102E1000910581F38D32924069F3DCCF81E080939C
:102E2000080184CA80910801882309F4C2C04801BE
:102E300020EE821A91084090690280911502482A7A
:102E400080916802482A38E08316910408F086C011
:102E500098012770332781E090E001C0880F2A9500
:102E6000EAF7552009F477C0482AD7018D919C9143
:102E70000E944D0921E030E0390102C0660C771C48
:102E80008A95E2F7E0912B03F0912C03FC8FEB8FF6
:102E900020900702309008021A8E2A8DE22FF0E06F
:102EA000EE0FFF1FE050FF4FC080D180C114D1044E
:102EB00009F47EC6411005C0D60112968C9181118D
:102EC000AEC0F601838190E086219721892B09F419
:102ED000A6C08085982F977009F487E0F8E08F16D8
:102EE000910408F055C0552009F44EC086958170B4
:102EF000882309F494C0D601AD90BC900A151B0537
:102F000019F4552009F48BC0EB8DFC8DCE16DF062D
:102F100009F485C0D6011D96ED91FC91309721F002
:102F20008081882309F47BC0642DC6010E941906A4
:102F3000882309F474C00A151B0509F0B3C60115EE
:102F4000110509F4B4C65110B4C6A214B30409F0B3
:102F500066C0512CAEC68095482287CF552009F413
:102F600010C610930802009307020E94D3046093D6
:102F700022037093230380932403909325031092DC
:102F80002A031092290371CF82FB882780F9B0CFE2
:102F9000552009F444C08170ABCF0E94F20EAAC63E
:102FA0000497813A910578F58A2D0E9416055110F3
:102FB0001ACEF7018581882309F44BC080919C02C9
:102FC000882309F49EC580919A0290919B020E94E9
:102FD000C4048D329140E8F5C801905281159042A9
:102FE00078F59801332780911302853080F5E82F1A
:102FF000F0E0EE0FFF1FE75FFD4F318320838F5F0F
:103000008093130293C90E94800B8FE39CE9019780
:10301000F1F700C000008A2D0E94820FC8CF9A8D60
:103020009F5F9A8F3ACFFC012081318102171307ED
:1030300009F09EC551109FC51092280380E0CAC5B3
:10304000C80190548115904160F29801CCCF109244
:103050009C02F801E851FC47E730F10508F068C52B
:10306000EA5FF44D0C94352A06E221EE41EE6AE166
:103070007CE7C7010E94B81059C907E225EE45EE6A
:103080006BE17CE7F6CF06E221EE40EE68E17CE7FB
:10309000F0CF07E225EE44EE69E17CE7EACF06E2F5
:1030A00021EE42EE6CE17CE7E4CF07E225EE46EE4E
:1030B0006DE17CE7DECF08E221E045EE6EE17CE7E2
:1030C000D8CF8091370381608093370395C080917A
:1030D00038038860809338038FC080913703826003
:1030E000F3CF809137038460EFCF809137038860FE
:1030F000EBCF809138038160EDCF809138038260FF
:10310000E9CF809137038061DFCF80913703806200
:10311000DBCF809137038064D7CF0E94D20B8091A0
:1031200037038068D1CF809137038C60CDCF8091F9
:1031300038038360CFCF809137038E7FC5CF8091D6
:103140003803877FC7CF809137038D7FBDCF8091B4
:1031500037038B7FB9CF80913703877FB5CF8091BD
:1031600038038E7FB7CF809138038D7FB3CF8091A6
:1031700037038F7EA9CF809137038F7DA5CF8091B4
:1031800037038F7BA1CF0E94D20B809137038F77BB
:103190009BCF80913703837F97CF809138038C7FBB
:1031A00099CF8091370382FB992790F921E09227EC
:1031B00090FB82F990FB83F987CF80913803982F99
:1031C000909591708E7F892B90FB81F983CF9091A0
:1031D0003703892F8F7B96FF806476CF0E94D20BB6
:1031E00090913703892F97FB87F980586DCF61E065
:1031F0008EE090E00E94C62A6091370370913803F8
:1032000084E090E00E94E42A0E94D20B8FC860E024
:10321000EFCF90913703892F8F7E94FF806154CF39
:1032200090913703892F8E7F90FF81604DCF9091D1
:103230003803892F877F93FF88604CCF8091680285
:103240000631FCE71F07D1F4992371F08A7A91E0E7
:1032500009F490E090931402811104C089E20E9465
:103260001605C1CC85E3FBCF80911402811104C007
:1032700089E20E94EB04B7CC85E3FBCF9801245789
:103280003C472330310530F5992321F104372CE7F1
:10329000120771F480913803806180933803609144
:1032A00037037091380384E090E00E94E42A3EC81E
:1032B000809138038F7E05373CE7130731F09091FA
:1032C0003803892F8F7E94FF80618093380310929A
:1032D0001001E5CF2091380324FD03C010921001A6
:1032E00054C0992309F451C090916902892B0115AA
:1032F00040E4140708F03FC0011550E2150708F03C
:10330000B7C0011593E0190778F40115A2E01A0778
:1033100088F4013E1105C9F1053E1105B1F10933EB
:10332000110599F168019FC0980132512F3F310575
:1033300009F0C0F7980132502F3F310511F008F025
:1033400088C082606801DD24BAE2CB16D10409F49A
:1033500092C008F0CAC3F8E2CF16D10408F0BAC38D
:103360002EE1C216D10408F0BCC334E0C316D10468
:1033700008F08DC0B3CF003EB2E51B0708F061C076
:103380000115E0E51E0708F466C0D70115968C917B
:10339000882381F00330BCE71B0709F45AC108F009
:1033A0003DC10115FCE71F0709F446C101301C4768
:1033B00009F455C1D70117968D919C91009709F496
:1033C0005CC10E94A207182F092FD7011596CC9037
:1033D00015971696BC90B2943FE0B32280913F02BD
:1033E000877001F1AC2CCC20F1F0892F807F8034E4
:1033F00061F080E2810F8830A8F0892F807E8032D2
:1034000021F4123078F0BB2069F08091380382FFFC
:1034100009C082E00E94C80980913F028770AA24F7
:10342000A3948111A12C902E92942FE09222BBE0C4
:10343000B91508F49BC1E92DF0E0E35FF44D0C945D
:10344000352A980136552F3F310511F008F06ACF23
:103450009CCF826177CFD70116969C91907F09F41B
:1034600094CF6801DD24982F9D7D09F46DCF36CF70
:10347000F7019681F3CF80911001882309F485CF5D
:1034800081508093100181CF827209F02AC380910C
:103490001001873058F046E050E06AE071E089E0C2
:1034A00091E00E94862A86E08093100140911001ED
:1034B00091E0940F90931001E42FF0E0E75FFE4F4E
:1034C000C082933008F461CFE6E0F1E0E491042E8D
:1034D000000C550B70E060E047FD57CFDA01A75FA5
:1034E000BE4F8C91E6FF7DC0EF738E1370C0FB0161
:1034F000E95FFE4FA490FB01E85FFE4FE4913E2F91
:103500002A2D2433310508F040CFF901EA5FFE4F40
:10351000E49141505109E7FF7FC0D70115967C9097
:1035200081E07826EF737E0EF901E95FFE4F5F01BF
:10353000BE016E5E7F4F88E0DB011D928A95E9F740
:10354000E92FF0E0E75FFE4FDF0111972C91892F03
:10355000612C32913C3211F4981303C06394815072
:10356000C1F72C3209F46A94E82FF0E0E75FFE4FD0
:10357000DB018A2F861B861508F441C0FE013196B7
:103580004F0181E1DF011D928A95E9F7552453949B
:10359000570C2C3209F4572CC4010E94982AE62DAE
:1035A000E519FF0BCF01B501880D991D0E94722A04
:1035B000912C791028C0C5010E940B10FCE2CF1697
:1035C000D10431F58CE28093090181E05ACFEE23DA
:1035D00009F4DBCE6D5F7F4FFB01EA5FFE4FE491A4
:1035E00084CF8E13D2CE9B012F5F3F4FF901EA5F4C
:1035F000FE4FE491E11185CF2F5F3F4F82CF819144
:10360000835A8D93B6CF8AE20E9402109394D1CF51
:10361000109210010C949611B9015ECF0B353CE766
:10362000130749F10C354CE71407D9F00A351C474C
:1036300009F0C0CE81E01CC00E94D20B8FEF94E352
:10364000ACE081509040A040E1F700C000000E9433
:10365000450B6FEF7FEF90E080E00E94E42A0E942C
:10366000A50E8091380382FB882780F991E0892795
:103670000E94690B9FCE80E0FBCFF701858100811E
:103680001181882369F0C8010E941109D82E682F82
:10369000C8010E948109B8018D2D0E94830791CE37
:1036A000C8010E944D09D82EF6CFE02FEF70DE2E14
:1036B000802F807F19F0D29490EFD922CC20B9F0DE
:1036C000DD2069F080E2810F883010F0111109C00F
:1036D00080916802D82AD09268020E94800B812FC4
:1036E00043C08091A302D82AD092A302F6CF812FA3
:1036F0000E94F20EDD20D1F180E2810F883010F0BF
:10370000111104C08D2D0E94D00806C0D094809164
:10371000A302D822D092A3020E94800B27C0F02FD0
:10372000FF70DF2E802F807F803219F0D29480EFDF
:10373000D822112349F0113009F457C0CC2009F4E4
:1037400063C0BB2079F1CBCF8091380382FD26C0C6
:10375000CC20F1F0DD2039F080916802D82AD09297
:1037600068020E94800B80E00E94820FA92DA85061
:10377000BB0B149710F40E949405812F902F0E9488
:10378000EE09811166C1109217021092160265C1EE
:1037900080E00E94F20EDD2049F3B4CFCC2099F0F6
:1037A000B11004C08D2D0E94E80EE0CF21E0B212CE
:1037B000DDCF809169029D2D9823D916B9F2D82AC0
:1037C000D0926902D3CFB110D1CF8D2D0E94DA0EE5
:1037D0008D2D0E94C608809115029D2D982331F2EF
:1037E000D094D822D0921502C1CFCC2029F035E058
:1037F0003B1508F4BBCFD6CF44E04B1508F4B6CF49
:103800008D2D0E94DA0EB2CFBB2079F0193349F426
:103810005FEF87EE93E0515080409040E1F700C0A9
:103820000000812F0E94F20EA1CF8091160290918C
:103830001702029729F7809168020E941C11E0CFBD
:10384000802F86958695837069F0813009F08ECF40
:10385000812F902F9370C11002C080E090E00E94F1
:103860004A0584CF812F902F9370C11002C080E051
:1038700090E00E946F057ACF802F837091F5C11080
:1038800075CF412F429546954770440F440F812FC5
:103890008F70042E01C0880F0A94EAF7212F20713F
:1038A00014FF07C02FE030E001C0220F4A95EAF76D
:1038B0002095302F369536953370323069F050F4BC
:1038C00040918302313029F0822B84230E94EB093E
:1038D0004DCF842B822BFACF282B80918302822715
:1038E000F5CF8695CC2011F0802F8170882309F4C4
:1038F0003DCF412F429546954770440F440F812F8D
:103900008F70042E01C0880F0A94EAF7212F2071CE
:1039100014FF07C02FE030E001C0220F4A95EAF7FC
:103920002095302F369536953370323069F050F44B
:1039300040918402313029F0822B84230E94B809FF
:1039400015CF842B822BFACF282B809184028227DB
:10395000F5CFA02FAF70DA2ECC2029F08A2F0E944D
:10396000DF09812F20CF812F0E94DA0E8D2D0E943A
:10397000BB09FCCE123F89F160F4103FB9F0113F52
:1039800081F0CC2009F455C0B110A9CE802F8F71E1
:1039900028C0133F49F1143FA1F79091380392FDDD
:1039A0002FC0802F8F71CC2011F31BC0CC2081F051
:1039B000B4E0BB1508F4DACE202F2F7181E090E03F
:1039C00001C0880F2A95EAF7909184028927B6CF23
:1039D000E5E0EB1508F4CACEEFCF802F8F71C11050
:1039E000C6CF0E94DF09C2CE80E0CC2009F4A6CF6A
:1039F00081E0902F9F7101C0880F9A95EAF79ECFC2
:103A0000CC2061F0802F8F7192FFEBCFF8E08F9F79
:103A100090011124236020933F02E3CF81E00E94B4
:103A2000C80921E02B1508F0A1CE82E00E94C80948
:103A30009DCEBB2059F0193309F0F3CE3FEF47EE8E
:103A400053E0315040405040E1F7E9CE802F8F7174
:103A50008ECFCC2001F1B11096CEAA20B1F080918A
:103A60003F0280FD12C0D70115961C92869586955F
:103A700086950E94DF09C7010E943C1180913F0298
:103A80008695869586950E94BB0960E0C7010E94D5
:103A9000530A0C94A511B11076CE20E0F7014081B5
:103AA000518162817381848195810E942E0A8C32BA
:103AB000F2E49F0721F08430934409F064CE8091B2
:103AC000160290911702029709F05DCE812F0E9495
:103AD000021059CE48E2C416D10409F0FFCB10926F
:103AE00010014CE2C42ED12CD2CC54E3C516D10423
:103AF00009F4CACCB0F399E3C916D10408F0EECBAF
:103B0000F0CF0835ACE71A0709F0A3CA81E080932B
:103B10009C020E94DF0490939B0280939A02109271
:103B20001302E9E0F2E08AE0DF011D928A95E9F7ED
:103B3000F7019581992309F481CB10923003980104
:103B400030572332310508F079CB84E090E00E94B1
:103B5000B02A9093380380933703F801E150F0477F
:103B6000E232F10508F0ADCAE75EF44D0C94352A57
:103B7000552009F41ECADC0118968C9185FD19CADE
:103B80005DCA80910702909108020817190781F415
:103B9000109208021092070210922203109223033F
:103BA000109224031092250310922A0310922903E5
:103BB00080912B0390912C03009709F4FAC9A8E097
:103BC0008A16910408F02FCA642D0E9419068111EB
:103BD000F0C981E00E941C0FECC903372CE71207E3
:103BE00011F00C9414168091A002882309F442C8A5
:103BF0000E94C60E0C949611222311F40C94CE123E
:103C0000B7016E5F7F4FC8010E94C10AC0900402D5
:103C1000D0900502C114D104A9F08C2D0E94F20E9F
:103C2000C6010E94620AF0EECF1AD10828E0C2163F
:103C3000D10410F00C9444150E94DA0E1092050283
:103C400010920402D70115968C91882311F40C94DC
:103C500048158091A30290916802892B9091690286
:103C6000892B827211F40C944815C8019052811569
:103C7000904310F00C944815F7018681807F11F471
:103C80000C9448150C32F2E41F0711F00C944815FF
:103C90008DE292E090930502809304020E94241129
:103CA0000C949611A114B10409F04FC9512CB12CF8
:103CB000A12C80E00E941C0F842D0E941C11D09228
:103CC0002C03C0922B0381E080932803F6018581A9
:103CD0008093260351100EC0AB2861F0F60180815D
:103CE00091819C0124503109213A310508F055C9D0
:103CF0000E94EB04D6011696AD90BC90C5019A9532
:103D000081159F4110F4E0EEBE2277247394C50123
:103D100001978F339E4708F0712CD6011996ED91CB
:103D2000FC911A97309731F01B966D917C9181E050
:103D300009957822772079F0F601868197810E9493
:103D4000620A80932703C501F8E08F16910408F0FA
:103D500027C90E94C8050E94800B29C90A373CE781
:103D6000130711F40C94061220911101243009F468
:103D70004DCF80910302811111C0D70115968C910E
:103D8000882361F08091010290910202009731F046
:103D90000817190719F081E080930302A801505217
:103DA00081E04115B0E35B0708F080E08170C82E28
:103DB000F70181818E3F28F4DD24D39480818E3FEA
:103DC00008F0D12CFD2DF170DF2E213011F00C9474
:103DD0007E12CC2009F414CFD70116968C91169739
:103DE000807F09F00DCF15968C91882309F408CFB8
:103DF000FF2309F405CF10921101109302020093E2
:103E0000010289E0F701A8EFB1E001900D928A95D7
:103E1000E1F7F701828193818A519F4F909373025A
:103E200080937202209371020C949611B0E0A0E08E
:103E3000ECE1FFE10C94462A80913C02807F09F07E
:103E400051C080913B02882309F44CC0E0919E034D
:103E500089E0D82E809155038E1709F443C00E2FA8
:103E600010E0ED9DF0011124EA5AFC4F8481882373
:103E7000F1F1D09EE001D19ED00D1124FE01EA5A4D
:103E8000FC4F918180913702981331C090818091CD
:103E9000360298132CC08581811129C0E280F380FD
:103EA0008091380290913902E81AF90A60E086E3BD
:103EB00092E00E94530A0E94F602E816F906B8F44E
:103EC00080913C028F70806180933C02C45ADC4F29
:103ED00088818F708061888386E392E00E943C1124
:103EE0000E940709CDB7DEB7E7E00C94622AF8011B
:103EF0003196E770AFCFA8E1B0E0E1E8FFE10C94C4
:103F00003C2A8C0186E0F801DE01539601900D9267
:103F10008A95E1F7D80114963C90149715966C9009
:103F200086E3E82E82E0F82E80913A0281112AC0C1
:103F3000311003C0FF24F3941CC06620F9F0C801BF
:103F40000E94090AF82E8823C9F089E0F801A6E347
:103F5000B2E001900D928A95E1F780913A028130AA
:103F600031F480913602909137020E9440090E94FC
:103F7000161F8F2D6896E1E10C94582AC8010E9403
:103F80003C11D8CFF80140805180C280D38060E0DE
:103F900086E392E00E94530A5C0170903B0280919C
:103FA000380290913902772009F42CC14601881A11
:103FB000990A60E086E392E00E94530A0E94F602AA
:103FC0008816990608F0D1C0332009F4B3CF809148
:103FD0003C02382F307F20913702D80111969C91F6
:103FE0001197311170C0F62C29131EC02091360292
:103FF0009C91291319C040913D0250913E021796A1
:104000002D913C914217530779F4611056C08F707F
:10401000806180933C0286E392E00E943C11809193
:104020003C02F8018683A5CF611047C0652D842D21
:104030000E944703E82E882399F0F9E0AF16F2E2D8
:10404000BF0609F496CF86E392E00E943C1189E016
:10405000E6E3F2E0DF011D928A95E9F7F12C89CFC2
:104060004B8A5C8A8B899C890E944009292F229562
:104070002F70243058F49F70223088F0992399F0E3
:10408000F8019681907F79F4FE2C73CF2A5F2F7010
:10409000223068F0C8010E943C11E72CF5CF99232B
:1040A00011F0882389F3805E883070F3F3CF803F6E
:1040B00058F3815F833070F7E7CF80913C028160D5
:1040C00080933C02CBCF291321C0209136029C91D2
:1040D00029131CC040913D0250913E0217962D912C
:1040E0003C9118974217530789F461100FC0169638
:1040F0008C93C8010E943C1189E0F801A6E3B2E06C
:1041000001900D928A95E1F7F72C33CFC8010E94F8
:10411000090A882309F432CF662009F42FCF809151
:104120003C028032B8F020913602309137023B8752
:104130002A87DD86CC8690913A029E871F86888BDF
:1041400080913D0290913E029A8B898BCE010A9616
:104150000E943C1189E0F801A6E3B2E001900D92C3
:104160008A95E1F70E94161FE5CE80913C02982FB8
:10417000907F09F468CF332009F4DCCE2091370218
:10418000F801918129131AC02091360290812913D8
:1041900015C040913D0250913E0227813085421763
:1041A000530761F461100AC08683C8010E943C1164
:1041B00089E0D7011D928A95E9F7A6CFC8010E9430
:1041C000090A882309F4DACE662009F4D7CE809153
:1041D0003C02803208F4BECF209136023091370283
:1041E0003A832983DC82CB8290913A029D831E829E
:1041F0008F8380913D0290913E0299878887CE01FE
:104200000196A6CF5601A81AB90A60E086E392E0AB
:104210000E94530A0E94F602A816B90608F071C05F
:10422000332009F487CEF62C662009F4A7CE9091AE
:104230003702F8018181981356C09091360280812F
:10424000981351C020913D0230913E0287819085A4
:104250002817390709F047C0809138029091390238
:10426000C81AD90A60E086E392E00E94530A8930B6
:10427000F2E29F0741F080F48730A1E29A0719F03B
:104280008E309142A1F489E0F801A6E3B2E00190FA
:104290000D928A95E1F76DCE8F30E1E49E0799F398
:1042A0008C32F2E49F0779F38D30924261F388EC0F
:1042B000C816D10440F780913C0280FDE4CF982FCE
:1042C000907F09F3D80116968C931697903F39F09A
:1042D000982F907F905F8F70892B16968C93C801D2
:1042E0000E943C11D0CFC8010E94090A811132CF2F
:1042F00080913C02816080933C02C8010E943C1185
:1043000038CE89E0F70111928A95E9F7A7CEA2E1AC
:10431000B0E0EDE8F1E20C94492A0A871B872C876C
:104320003D874E875F87688B798B8A8BCE010A9693
:104330000E947B1F81110CC089E0FE013A96DE01CC
:10434000119601900D928A95E1F78E8581110BC02F
:1043500019E080919E0390915503891331C06296B4
:10436000E4E00C94652A2091550330E0C9010196E0
:104370008770992740919E034817190699F099E094
:10438000929FD001939FB00D1124AA5ABC4FFE01F9
:10439000319601900D929A95E1F7809355030E9412
:1043A0000709D6CF0E94D20B1092550310929E039C
:1043B00089E0E6E3F2E0DF011D928A95E9F7C8CFD4
:1043C000819FC00111248A5A9C4F0E947B1F882321
:1043D00031F280919E0390E0019687709927809337
:1043E0009E03B7CFEF92FF920F931F93CF93DF936C
:1043F0008091A502882361F0E091A4028DE0F82E5F
:104400008091A502E81748F01092A5021092A4022C
:10441000CDB7DEB7E6E00C94632AEE24E394EE0E0B
:10442000E092A402CE2FD0E0EF9DF0011124EA55D6
:10443000FD4F84818823E9F087819085892B21F4C1
:1044400081859285019659F4008111812281338101
:10445000448155816681778180850E948721FC9EF9
:10446000F001FD9EF00D1124EA55FD4F14821092CB
:10447000A302EE2DC5CF10921903109218031092CB
:10448000310180911703809316030E9467060E94F2
:10449000F2210895B0E0A0E0E0E5F2E20C943B2ABE
:1044A000C0911603E7E0FE2E01E010E0FDE02F2EA4
:1044B000EE24E394809117038C1309C00E94F2212B
:1044C0000E946706CDB7DEB7E2E10C94572AD0E030
:1044D000FE01EE0FFF1FE25FFC4F80819181F89E8D
:1044E000F001F99EF00D1124E45EFE4F24812111AC
:1044F0005AC03090A502A6EAB2E030E020E0412C9C
:104500005F01231508F04DC01B966D907C901C97A1
:10451000F501808091804FEF5FEF512CC52CD12C9D
:10452000F601EE0FFF1FE80DF91D659174916616F7
:10453000770609F4A601672B11F05394EFCF4F3F94
:104540005407B9F1B80102C0660F771F4A95E2F728
:10455000462AA801052C02C0440F551F0A94E2F711
:10456000415051094416150609F5229EF001239E7B
:10457000F00D1124EA55FD4FF89ED001F99EB00DC3
:104580001124A45EBE4F12962D913C911397308753
:10459000278374E074831082118292878187159635
:1045A000EC920E9439062196C37084CF14961C9217
:1045B00014972F5F3F4F1D96A4CFAEE1B0E0E3EE1E
:1045C000F2E20C943B2A4B8B5C8B6D8B7E8B8F8B3A
:1045D000988F882349F080911602909117020196D6
:1045E0009093170280931602888D81111092A30276
:1045F000188A198A1A8A86E0FE017396DE011A96D5
:1046000001900D928A95E1F78E85882389F061E00B
:10461000CE010A960E94530A4C018F8520E582162E
:104620002CE7920689F4882329F181E080933101F7
:104630000A851B852C853D854E855F85688979892E
:104640008A890E948721E2C031E583163CE7930600
:1046500029F4882379F00E943B22EACF42E58416B0
:104660004CE7940639F4882329F0809131018111B7
:10467000F2CFDBCFECE1EE2EE1E0FE2E412CD12C8F
:10468000C12C22242394312CCE0101969A8F898F3C
:10469000F70140815181AA24AA94BA2C512C252DCE
:1046A00030E0F901EE0FFF1FE40FF51F85919491A3
:1046B0008816990609F45901892B11F05394EFCF0C
:1046C00010E0FFEFAF16BF0609F461C0F7014481A7
:1046D000411117C080913101882399F011E0C11474
:1046E000D10481F48091220190E0019611E09101C2
:1046F0000A2C02C0220F331F0A94E2F78217930795
:1047000009F010E01170F701F581FB8FF7010681C8
:104710008F85882309F4FCC0112309F4F9C0C60170
:104720000E943F033C01FB8DF11114C0C1010A2C12
:1047300001C0880F0A94EAF7082BF70106838091DD
:10474000A1029091A2028615970520F47092A20210
:104750006092A102C101052C02C0880F991F0A9422
:10476000E2F70197F70126812817190681F4809155
:10477000180390911903009709F44CC00E94C404D7
:104780006816790608F046C021E0F7012483412A23
:10479000FFEFCF1ADF0A27E0E20EF11C33E0C31669
:1047A000D10409F075CF8F85882309F414C1442002
:1047B00009F411C10E94DF04909319038093180338
:1047C0008091A502883010F591E0980F9093A50292
:1047D00099E0FE013A96DE01119601900D929A95AC
:1047E000E1F74DE0849FC00111248A559D4F29E0D7
:1047F000FE013196DC0101900D922A95E1F72FEF31
:104800003FEFFC0132872187948683866E96E2E132
:104810000C94572A8091160360911703982FF0E0AB
:10482000E0E0861314C090931603EE16FF0609F419
:10483000AECF90E0FC01EE0FFF1FE25FFC4FD18294
:10484000C08201968370992780931703A0CFA82E6A
:10485000B12CF501EE0FFF1FE25FFC4F208131818B
:1048600047E0429FD001439FB00D1124A45EBE4F8C
:104870002D913C9111973E8F2D8F712C70E000E0AF
:10488000E02FF0E0EE0FFF1F2D8D3E8DE20FF31FA6
:104890002591349121153105E1F0F7010190F08166
:1048A000E02DFC8FEB8F70E005C02417350709F46D
:1048B000712E7F5FE72FF0E0EE0FFF1F4B8D5C8DB9
:1048C000E40FF51F459154914115510571F70F5FA4
:1048D000D7CF7720D1F0F701701708F0FD0121E064
:1048E0002483EE16FF0621F490931603172D4FCF65
:1048F000891305C0AE17BF0711F49F5F9370950130
:104900002F5F3F4F822F83708CCFF0E0E0E0F7CF36
:10491000802F90E0FB8DF11120C09101052C02C089
:10492000220F331F0A94E2F72150310982179307AF
:1049300031F4442309F44DC0C6010E943906C10177
:104940000A2C01C0880F0A94EAF7982F9095F70176
:104950008681892386831B8D1ACF9C010A2C02C075
:10496000359527950A94E2F7A901417055278C01E6
:1049700001501109082319230115110531F5452BA3
:1049800021F1F70182819381892BE1F0E98DFA8D84
:1049900027E011922A95E9F70E94DF04282F8B83E4
:1049A0009C8334E03D83F70182819381782F88874F
:1049B000998709811A813C8144E05E816F81892F4A
:1049C0000E948721F7011582BACFF22FF170FB8F79
:1049D000B6CF1B8FB4CF9091160380911703981711
:1049E00029F00E944A22411011CF22CE0E94F221CA
:1049F00010921903109218030E946706F4CFA6E0E4
:104A0000B0E0E5E0F5E20C94492A0E94DF048C0155
:104A100080916A0290916B028017910781F0198250
:104A20001A820E94DF04682F49815A81792F80E021
:104A300090E00E94DD2210936B0200936A0226969A
:104A4000E4E00C94652ACF93C62F24E02093110153
:104A50000E943C11C0931101CF9108950E94E10E74
:104A600063E088EF91E00E9423250895AAE0B0E07A
:104A7000ECE3F5E20C943F2A8E010F5F1F4F8AE0B2
:104A8000F80111928A95E9F799E9E92E91E0F92E5A
:104A9000680166246394712C3DEA832E31E0932EE5
:104AA000F70181917F018F3F09F445C0F894E82F09
:104AB000E295EF70F0E021A18F70A30102C0440FD6
:104AC000551F8A95E2F7CA01922F982B91A392A1C4
:104AD0008095892382A3789400C0EEE9F1E021E07B
:104AE00030E0B12CA12C41914F3F09F4A9C0A42F73
:104AF000A295AF70B0E090968C9190E04F7002C09C
:104B0000959587954A95E2F780FD9AC0C901A82A34
:104B1000B92A220F331F8E169F0629F7F701319706
:104B200080818F3F11F00E947B0650EA5A95F1F781
:104B3000F601B182A082F2E0CF0ED11C2EE9E2167E
:104B400021E0F20609F0ACCF4AE050E0B80189E775
:104B500092E00E94792A892B09F477C08AE0F80153
:104B6000A9E7B2E001900D928A95E1F781E0809388
:104B70006E020E94DF0490936D0280936C0210E03D
:104B80008091110181110FC00E94DF0420917202F7
:104B900030917302821B930B8F3F9F4720F410923A
:104BA00071020E942E25E0906F02F0907002E114D5
:104BB000F10469F00E94DF048E199F09805293402E
:104BC0008F3F9F4720F41092700210926F028091E5
:104BD0007802882381F140917402509175026091AE
:104BE0007602709177022FB7F89480913A039091F2
:104BF0003B03A0913C03B0913D032FBF841B950B59
:104C0000A60BB70B81369A4EA105B105A0F0809195
:104C1000780280959091840289230E94B8091092AD
:104C200078020E94D304609374027093750280939B
:104C3000760290937702812F2A96EEE00C945B2AFD
:104C400090E080E064CF10E021C010916E0211234B
:104C500009F495CF80916C0290916D020E94C4047A
:104C6000059708F48CCF4AE050E069E772E085E8E8
:104C700092E00E94792A892B31F38AE0E9E7F2E099
:104C8000A5E8B2E001900D928A95E1F710926E02CC
:104C900077CF1F920F920FB60F9211242F933F934D
:104CA0004F935F936F937F938F939F93AF93BF9334
:104CB000CF93DF93EF93FF93D091E900DF70809162
:104CC000EC00C82FC17080FDC0E81092E90080910F
:104CD000F000877F8093F00078940E94F40B10928C
:104CE000E9008091F00088608093F000CD2BCF70B8
:104CF000C093E900FF91EF91DF91CF91BF91AF9108
:104D00009F918F917F916F915F914F913F912F91E3
:104D10000F900FBE0F901F9018951F920F920FB615
:104D20000F9211242F933F934F935F936F937F9331
:104D30008F939F93AF93BF93EF93FF938091E10085
:104D400082FF09C08091E20082FF05C08091E100EE
:104D50008B7F8093E1008091DA0080FF24C08091F6
:104D6000D80080FF20C08091DA008E7F8093DA0027
:104D70008091D90080FF9DC080E189BD82E189BD1D
:104D800009B400FEFDCF81E080934B0380913E0388
:104D9000811109C00E9466030E9407048091E2000D
:104DA00084608093E2008091E10080FF17C08091D1
:104DB000E20080FF13C08091E2008E7F8093E200CA
:104DC0008091E20080618093E2008091D80080624F
:104DD0008093D80019BC85E080934B038091E1005B
:104DE00084FF2BC08091E20084FF27C080E189BD51
:104DF00082E189BD89B5982F917080FFFBCF8091AA
:104E0000D8008F7D8093D8008091E1008F7E8093C1
:104E1000E1008091E2008F7E8093E2008091E200C9
:104E200081608093E20080914C03882309F447C09D
:104E300084E080934B0380914B038091E10083FFDA
:104E400027C08091E20083FF23C08091E100877F2B
:104E50008093E10082E080934B0310924C03809199
:104E6000E1008E7F8093E1008091E2008E7F80934D
:104E7000E2008091E20080618093E20042E060E025
:104E800080E00E94D5038091F00088608093F0005C
:104E9000FF91EF91BF91AF919F918F917F916F9112
:104EA0005F914F913F912F910F900FBE0F901F90E8
:104EB000189519BC10924B0310923E0374CF809149
:104EC000E30087FD93E090934B03B5CF78941F9256
:104ED0001FB61F9211248F939F93AF93BF9380911E
:104EE0003A0390913B03A0913C03B0913D0301969E
:104EF000A11DB11D80933A0390933B03A0933C0303
:104F0000B0933D03BF91AF919F918F911F901FBEB2
:104F10001F9018951F921FB61F9211248F939F9375
:104F2000AF93BF9380913903811113C080913A03ED
:104F300090913B03A0913C03B0913D034196A11D8C
:104F4000B11D80933A0390933B03A0933C03B0932D
:104F50003D03BF91AF919F918F911F901FBE1F90F6
:104F60001895CDB7DEB728970FB6F894DEBF0FBE01
:104F7000CDBF85B7806885BF85B7806885BF84B79A
:104F8000877F84BF0FB6F894A895809160008861F0
:104F900080936000109260000FBE80E890E00FB632
:104FA000F89480936100909361000FBE89E796E0CA
:104FB0009093AF018093AE010E9466030E940704A4
:104FC0008091E20084608093E200789480914B03AA
:104FD0008823A1F01091E9001F709091EC00892FB7
:104FE000817090FD80E8182B1092E9008091E80014
:104FF00083FD0E94F40B1F701093E90082E084BDD2
:1050000093E095BD9AEF97BD80936E0009E911E09A
:10501000D8018D918D018F3F11F00E947B06B1E088
:105020000E391B07A9F70EE911E06DEAE62E61E0E3
:10503000F62EF80181918F018F3F11F00E947B06BF
:10504000E016F106B1F78AE0E5E8F2E0DF01282F8B
:105050001D922A95E9F7E9E7F2E0DF011D928A95B2
:10506000E9F790E080E00E94B02A853E9E4F09F467
:105070005EC065EE7EEF90E080E00E94E42A60E092
:1050800082E090E00E94C62A81E08093830261E082
:1050900083E090E00E94C62A60E074E184E090E042
:1050A0000E94E42A60E086E090E00E94C62A60E068
:1050B00087E090E00E94C62A40E050E0BA0188E014
:1050C00090E00E94D82A60E083E290E00E94C62A25
:1050D00060E08CE090E00E94C62A60E08DE090E005
:1050E0000E94C62A19821A821B821C821D821E827D
:1050F0001F82188648E050E067E170E0CE0101961B
:105100000E94B62A40E050E0BA018FE190E00E9490
:10511000D82A40E050E0BA018FE090E00E94D82AFF
:1051200040E050E0BA0183E190E00E94D82A82E09A
:1051300090E00E94A82A80938F0284E090E00E9471
:10514000B02A90933803809337030E943625EFEFFF
:10515000F6E721E0E150F0402040E1F700C0000018
:105160000E9436258091850280FF08C06FEF7FEF97
:1051700090E080E00E94E42A0E94450B83E090E0EA
:105180000E94A82A0E94EB098091370380688093CF
:105190003703609137037091380384E090E00E94F8
:1051A000E42A82E191E0909334038093330348E151
:1051B000442E512C5AE9652E52E0752E80914B03F6
:1051C00012E1853009F48DC00E94362520E9A22E17
:1051D00022E0B22E35E8832E32E0932ED401F50181
:1051E000219131918D919D916E167F0609F483C0B6
:1051F00028173907A9F3312CD4010D911D914D01C8
:10520000F501C190D1905F01C016D10661F1C026B1
:10521000D126212CEE24E394F12CC7018C219D2171
:10522000892BB9F029823A820E94DF049C838B8308
:10523000F1E0FD8391E0970120233123232B09F432
:1052400090E09E8349815A816B817C818D810E948F
:10525000DD222394EE0CFF1C2FE02212DECFF5019D
:10526000329711830083339485E03812C5CF0E94B2
:10527000D30447C080914B03843011F1109239035D
:1052800080E40FB6F894A895409260000FBE80931A
:10529000600083B7817F846083BF83B7816083BFF1
:1052A0007894889583B78E7F83BF0FB6F894A895BE
:1052B00080916000886180936000109260000FBE52
:1052C00080914A03882369F00E943625E5E8F2E0E0
:1052D00081919191892B09F0B1C092E0EF38F907E3
:1052E000B9F780914B03853009F4C4CF0E94D20BEB
:1052F0000E94940569CF2817390709F07CCF0E94D6
:10530000FF248091290390912A03892B09F43EC040
:1053100040911E0350911F0360912003709121035F
:105320002FB7F89480913A0390913B03A0913C03EE
:10533000B0913D032FBF841B950BA60BB70B40917B
:105340001A0350911B0360911C0370911D03841775
:105350009507A607B707D0F08091290390912A03FB
:105360000E94241110922A031092290310921E0306
:1053700010921F03109220031092210310921A031F
:1053800010921B0310921C0310921D038091310197
:105390008823F9F080911803909119030097C9F0C0
:1053A0000E94C4042091A1023091A202281739075B
:1053B00080F490911603809117039817B1F10E9421
:1053C0004A221092A2021092A10210921903109286
:1053D000180380919C02882359F080919A02909141
:1053E0009B020E94C4048D32914010F010929C02E6
:1053F0008091A002882369F00E94DF0420919D0221
:1054000030919E02821B930B8F3F9F4710F40E94A6
:10541000C60E0E94940590919F02891709F4CECE82
:1054200080939F020E94D304C9CE0E94F221109261
:105430001903109218030E946706CBCFE0E1E9BD83
:1054400019BD09B400FEFDCF8091D8008F7D8093F7
:10545000D8008091E00082608093E0008091E000BD
:1054600081FDFCCF0E94D20B3CCFEE0FFF1F0590B9
:10547000F491E02D09942F923F924F925F926F9298
:105480007F928F929F92AF92BF92CF92DF92EF92D4
:10549000FF920F931F93CF93DF93CDB7DEB7CA1B55
:1054A000DB0B0FB6F894DEBF0FBECDBF09942A8880
:1054B000398848885F846E847D848C849B84AA8428
:1054C000B984C884DF80EE80FD800C811B81AA81B5
:1054D000B981CE0FD11D0FB6F894DEBF0FBECDBF80
:1054E000ED010895FB01DC0105900D920020E1F72C
:1054F0000895FB01DC0104C08D910190801921F415
:1055000041505040C8F7881B990B089568177907D8
:1055100068F4FB01DC01E40FF51FA40FB51F02C006
:1055200002900E9241505040D8F708950C949F2A53
:10553000FB01DC0101900D920020E1F70895FB01D1
:10554000DC0102C001900D9241505040D8F70895FF
:10555000F999FECF92BD81BDF89A992780B508953B
:10556000A8E1B0E042E050E00C94EC2ADC01A40F8A
:10557000B51F4150504048F0CB01840F951F2E912C
:105580000E94C72A41505040D0F70895262FF9991C
:10559000FECF92BD81BDF89A019700B4021639F092
:1055A0001FBA20BD0FB6F894FA9AF99A0FBE089563
:1055B0000396272F0E94C72A0E94C62A252F0E94E1
:1055C000C72A242F0C94C72A0196272F0E94C72A86
:1055D0000C94C62ADC01CB01FC01F999FECF06C070
:1055E000F2BDE1BDF89A319600B40D9241505040A1
:1055F000B8F70895F894FFCFD30CFB0C930EFB0C77
:10560000930E2E0D4F0D930E4C0E590E4318491844
:1056100034183D184F1855185B18551B551B8F1B18
:105620008F1B201CB61BB61BB61B3C1CA91CBA1C2E
:10563000BA1C9B181019A3186D187118A7187518A3
:10564000AB18B718811809198518BB188918BF1825
:10565000E7188D18C318EE189318C918D1187918BF
:10566000AF187D18B3189718CD18DD18F71807195B
:0656700067189F181719CE
:105676005101420133010000012C0000000000002E
:105686000101C104310B2A0BC004230BB800290009
:10569600000000B200587C000000AC00737C0000E3
:1056A600000101150011FF001107010700000000AD
:1056B60000000F4111FF0011210207000000000049
:1056C600000B0011FF00112D020700000000000072
:1056D600818283E200E900EA00B500B600B700CD9A
:1056E600008301CC008A0192019401210223022445
:1056F600022502260227022A02B300B4006F0070B8
:10570600009F01CB019F02A00230379091929594A1
:0E57160096973435366667F7F6F5F4F1F00035
:00000001FF
